{"project/contracts/AgentLedger.sol":{"AgentLedger":{"abi":[{"anonymous":false,"inputs":[{"indexed":true,"internalType":"address","name":"agentAddress","type":"address"},{"indexed":false,"internalType":"string","name":"agentId","type":"string"},{"indexed":false,"internalType":"string","name":"action","type":"string"},{"indexed":false,"internalType":"int256","name":"price","type":"int256"},{"indexed":false,"internalType":"uint256","name":"timestamp","type":"uint256"}],"name":"ActionLogged","type":"event"},{"inputs":[],"name":"getAllRecords","outputs":[{"components":[{"internalType":"address","name":"agentAddress","type":"address"},{"internalType":"string","name":"agentId","type":"string"},{"internalType":"string","name":"action","type":"string"},{"internalType":"int256","name":"price","type":"int256"},{"internalType":"int256","name":"rsi","type":"int256"},{"internalType":"uint256","name":"timestamp","type":"uint256"}],"internalType":"struct AgentLedger.AgentRecord[]","name":"","type":"tuple[]"}],"stateMutability":"view","type":"function"},{"inputs":[{"internalType":"uint256","name":"index","type":"uint256"}],"name":"getRecord","outputs":[{"components":[{"internalType":"address","name":"agentAddress","type":"address"},{"internalType":"string","name":"agentId","type":"string"},{"internalType":"string","name":"action","type":"string"},{"internalType":"int256","name":"price","type":"int256"},{"internalType":"int256","name":"rsi","type":"int256"},{"internalType":"uint256","name":"timestamp","type":"uint256"}],"internalType":"struct AgentLedger.AgentRecord","name":"","type":"tuple"}],"stateMutability":"view","type":"function"},{"inputs":[{"internalType":"string","name":"agentId","type":"string"},{"internalType":"string","name":"action","type":"string"},{"internalType":"int256","name":"price","type":"int256"},{"internalType":"int256","name":"rsi","type":"int256"}],"name":"logAction","outputs":[],"stateMutability":"nonpayable","type":"function"},{"inputs":[{"internalType":"uint256","name":"","type":"uint256"}],"name":"records","outputs":[{"internalType":"address","name":"agentAddress","type":"address"},{"internalType":"string","name":"agentId","type":"string"},{"internalType":"string","name":"action","type":"string"},{"internalType":"int256","name":"price","type":"int256"},{"internalType":"int256","name":"rsi","type":"int256"},{"internalType":"uint256","name":"timestamp","type":"uint256"}],"stateMutability":"view","type":"function"},{"inputs":[],"name":"totalLogs","outputs":[{"internalType":"uint256","name":"","type":"uint256"}],"stateMutability":"view","type":"function"}],"evm":{"bytecode":{"linkReferences":{},"object":"608060405234801561000f575f80fd5b5061124f8061001d5f395ff3fe608060405234801561000f575f80fd5b5060043610610055575f3560e01c806303e9e6091461005957806334461067146100895780638874410d146100be578063a7f9fe72146100da578063e4ce0662146100f8575b5f80fd5b610073600480360381019061006e9190610841565b610116565b60405161008091906109e9565b60405180910390f35b6100a3600480360381019061009e9190610841565b6102e1565b6040516100b596959493929190610a7e565b60405180910390f35b6100d860048036038101906100d39190610c41565b610452565b005b6100e26105c2565b6040516100ef9190610e25565b60405180910390f35b6101006107af565b60405161010d9190610e45565b60405180910390f35b61011e6107b5565b5f828154811061013157610130610e5e565b5b905f5260205f2090600602016040518060c00160405290815f82015f9054906101000a900473ffffffffffffffffffffffffffffffffffffffff1673ffffffffffffffffffffffffffffffffffffffff1673ffffffffffffffffffffffffffffffffffffffff1681526020016001820180546101ac90610eb8565b80601f01602080910402602001604051908101604052809291908181526020018280546101d890610eb8565b80156102235780601f106101fa57610100808354040283529160200191610223565b820191905f5260205f20905b81548152906001019060200180831161020657829003601f168201915b5050505050815260200160028201805461023c90610eb8565b80601f016020809104026020016040519081016040528092919081815260200182805461026890610eb8565b80156102b35780601f1061028a576101008083540402835291602001916102b3565b820191905f5260205f20905b81548152906001019060200180831161029657829003601f168201915b5050505050815260200160038201548152602001600482015481526020016005820154815250509050919050565b5f81815481106102ef575f80fd5b905f5260205f2090600602015f91509050805f015f9054906101000a900473ffffffffffffffffffffffffffffffffffffffff169080600101805461033390610eb8565b80601f016020809104026020016040519081016040528092919081815260200182805461035f90610eb8565b80156103aa5780601f10610381576101008083540402835291602001916103aa565b820191905f5260205f20905b81548152906001019060200180831161038d57829003601f168201915b5050505050908060020180546103bf90610eb8565b80601f01602080910402602001604051908101604052809291908181526020018280546103eb90610eb8565b80156104365780601f1061040d57610100808354040283529160200191610436565b820191905f5260205f20905b81548152906001019060200180831161041957829003601f168201915b5050505050908060030154908060040154908060050154905086565b5f6040518060c001604052803373ffffffffffffffffffffffffffffffffffffffff1681526020018681526020018581526020018481526020018381526020014281525090505f81908060018154018082558091505060019003905f5260205f2090600602015f909190919091505f820151815f015f6101000a81548173ffffffffffffffffffffffffffffffffffffffff021916908373ffffffffffffffffffffffffffffffffffffffff16021790555060208201518160010190816105199190611085565b50604082015181600201908161052f9190611085565b50606082015181600301556080820151816004015560a08201518160050155505060015f81548092919061056290611181565b91905055503373ffffffffffffffffffffffffffffffffffffffff167fc6d4887fb446496afdc92449b51feb1a6e8b0d557261162ad0df52e2ee19ace9868686426040516105b394939291906111c8565b60405180910390a25050505050565b60605f805480602002602001604051908101604052809291908181526020015f905b828210156107a6578382905f5260205f2090600602016040518060c00160405290815f82015f9054906101000a900473ffffffffffffffffffffffffffffffffffffffff1673ffffffffffffffffffffffffffffffffffffffff1673ffffffffffffffffffffffffffffffffffffffff16815260200160018201805461066990610eb8565b80601f016020809104026020016040519081016040528092919081815260200182805461069590610eb8565b80156106e05780601f106106b7576101008083540402835291602001916106e0565b820191905f5260205f20905b8154815290600101906020018083116106c357829003601f168201915b505050505081526020016002820180546106f990610eb8565b80601f016020809104026020016040519081016040528092919081815260200182805461072590610eb8565b80156107705780601f1061074757610100808354040283529160200191610770565b820191905f5260205f20905b81548152906001019060200180831161075357829003601f168201915b505050505081526020016003820154815260200160048201548152602001600582015481525050815260200190600101906105e4565b50505050905090565b60015481565b6040518060c001604052805f73ffffffffffffffffffffffffffffffffffffffff16815260200160608152602001606081526020015f81526020015f81526020015f81525090565b5f604051905090565b5f80fd5b5f80fd5b5f819050919050565b6108208161080e565b811461082a575f80fd5b50565b5f8135905061083b81610817565b92915050565b5f6020828403121561085657610855610806565b5b5f6108638482850161082d565b91505092915050565b5f73ffffffffffffffffffffffffffffffffffffffff82169050919050565b5f6108958261086c565b9050919050565b6108a58161088b565b82525050565b5f81519050919050565b5f82825260208201905092915050565b5f5b838110156108e25780820151818401526020810190506108c7565b5f8484015250505050565b5f601f19601f8301169050919050565b5f610907826108ab565b61091181856108b5565b93506109218185602086016108c5565b61092a816108ed565b840191505092915050565b5f819050919050565b61094781610935565b82525050565b6109568161080e565b82525050565b5f60c083015f8301516109715f86018261089c565b506020830151848203602086015261098982826108fd565b915050604083015184820360408601526109a382826108fd565b91505060608301516109b8606086018261093e565b5060808301516109cb608086018261093e565b5060a08301516109de60a086018261094d565b508091505092915050565b5f6020820190508181035f830152610a01818461095c565b905092915050565b610a128161088b565b82525050565b5f82825260208201905092915050565b5f610a32826108ab565b610a3c8185610a18565b9350610a4c8185602086016108c5565b610a55816108ed565b840191505092915050565b610a6981610935565b82525050565b610a788161080e565b82525050565b5f60c082019050610a915f830189610a09565b8181036020830152610aa38188610a28565b90508181036040830152610ab78187610a28565b9050610ac66060830186610a60565b610ad36080830185610a60565b610ae060a0830184610a6f565b979650505050505050565b5f80fd5b5f80fd5b7f4e487b71000000000000000000000000000000000000000000000000000000005f52604160045260245ffd5b610b29826108ed565b810181811067ffffffffffffffff82111715610b4857610b47610af3565b5b80604052505050565b5f610b5a6107fd565b9050610b668282610b20565b919050565b5f67ffffffffffffffff821115610b8557610b84610af3565b5b610b8e826108ed565b9050602081019050919050565b828183375f83830152505050565b5f610bbb610bb684610b6b565b610b51565b905082815260208101848484011115610bd757610bd6610aef565b5b610be2848285610b9b565b509392505050565b5f82601f830112610bfe57610bfd610aeb565b5b8135610c0e848260208601610ba9565b91505092915050565b610c2081610935565b8114610c2a575f80fd5b50565b5f81359050610c3b81610c17565b92915050565b5f805f8060808587031215610c5957610c58610806565b5b5f85013567ffffffffffffffff811115610c7657610c7561080a565b5b610c8287828801610bea565b945050602085013567ffffffffffffffff811115610ca357610ca261080a565b5b610caf87828801610bea565b9350506040610cc087828801610c2d565b9250506060610cd187828801610c2d565b91505092959194509250565b5f81519050919050565b5f82825260208201905092915050565b5f819050602082019050919050565b5f60c083015f830151610d1b5f86018261089c565b5060208301518482036020860152610d3382826108fd565b91505060408301518482036040860152610d4d82826108fd565b9150506060830151610d62606086018261093e565b506080830151610d75608086018261093e565b5060a0830151610d8860a086018261094d565b508091505092915050565b5f610d9e8383610d06565b905092915050565b5f602082019050919050565b5f610dbc82610cdd565b610dc68185610ce7565b935083602082028501610dd885610cf7565b805f5b85811015610e135784840389528151610df48582610d93565b9450610dff83610da6565b925060208a01995050600181019050610ddb565b50829750879550505050505092915050565b5f6020820190508181035f830152610e3d8184610db2565b905092915050565b5f602082019050610e585f830184610a6f565b92915050565b7f4e487b71000000000000000000000000000000000000000000000000000000005f52603260045260245ffd5b7f4e487b71000000000000000000000000000000000000000000000000000000005f52602260045260245ffd5b5f6002820490506001821680610ecf57607f821691505b602082108103610ee257610ee1610e8b565b5b50919050565b5f819050815f5260205f209050919050565b5f6020601f8301049050919050565b5f82821b905092915050565b5f60088302610f447fffffffffffffffffffffffffffffffffffffffffffffffffffffffffffffffff82610f09565b610f4e8683610f09565b95508019841693508086168417925050509392505050565b5f819050919050565b5f610f89610f84610f7f8461080e565b610f66565b61080e565b9050919050565b5f819050919050565b610fa283610f6f565b610fb6610fae82610f90565b848454610f15565b825550505050565b5f90565b610fca610fbe565b610fd5818484610f99565b505050565b5b81811015610ff857610fed5f82610fc2565b600181019050610fdb565b5050565b601f82111561103d5761100e81610ee8565b61101784610efa565b81016020851015611026578190505b61103a61103285610efa565b830182610fda565b50505b505050565b5f82821c905092915050565b5f61105d5f1984600802611042565b1980831691505092915050565b5f611075838361104e565b9150826002028217905092915050565b61108e826108ab565b67ffffffffffffffff8111156110a7576110a6610af3565b5b6110b18254610eb8565b6110bc828285610ffc565b5f60209050601f8311600181146110ed575f84156110db578287015190505b6110e5858261106a565b86555061114c565b601f1984166110fb86610ee8565b5f5b82811015611122578489015182556001820191506020850194506020810190506110fd565b8683101561113f578489015161113b601f89168261104e565b8355505b6001600288020188555050505b505050505050565b7f4e487b71000000000000000000000000000000000000000000000000000000005f52601160045260245ffd5b5f61118b8261080e565b91507fffffffffffffffffffffffffffffffffffffffffffffffffffffffffffffffff82036111bd576111bc611154565b5b600182019050919050565b5f6080820190508181035f8301526111e08187610a28565b905081810360208301526111f48186610a28565b90506112036040830185610a60565b6112106060830184610a6f565b9594505050505056fea26469706673582212208dba3c1c74134daca105ed230e3494a05f25293ace910787d3c5a3ecb630efe864736f6c63430008180033","opcodes":"PUSH1 0x80 PUSH1 0x40 MSTORE CALLVALUE DUP1 ISZERO PUSH2 0xF JUMPI PUSH0 DUP1 REVERT JUMPDEST POP PUSH2 0x124F DUP1 PUSH2 0x1D PUSH0 CODECOPY PUSH0 RETURN INVALID PUSH1 0x80 PUSH1 0x40 MSTORE CALLVALUE DUP1 ISZERO PUSH2 0xF JUMPI PUSH0 DUP1 REVERT JUMPDEST POP PUSH1 0x4 CALLDATASIZE LT PUSH2 0x55 JUMPI PUSH0 CALLDATALOAD PUSH1 0xE0 SHR DUP1 PUSH4 0x3E9E609 EQ PUSH2 0x59 JUMPI DUP1 PUSH4 0x34461067 EQ PUSH2 0x89 JUMPI DUP1 PUSH4 0x8874410D EQ PUSH2 0xBE JUMPI DUP1 PUSH4 0xA7F9FE72 EQ PUSH2 0xDA JUMPI DUP1 PUSH4 0xE4CE0662 EQ PUSH2 0xF8 JUMPI JUMPDEST PUSH0 DUP1 REVERT JUMPDEST PUSH2 0x73 PUSH1 0x4 DUP1 CALLDATASIZE SUB DUP2 ADD SWAP1 PUSH2 0x6E SWAP2 SWAP1 PUSH2 0x841 JUMP JUMPDEST PUSH2 0x116 JUMP JUMPDEST PUSH1 0x40 MLOAD PUSH2 0x80 SWAP2 SWAP1 PUSH2 0x9E9 JUMP JUMPDEST PUSH1 0x40 MLOAD DUP1 SWAP2 SUB SWAP1 RETURN JUMPDEST PUSH2 0xA3 PUSH1 0x4 DUP1 CALLDATASIZE SUB DUP2 ADD SWAP1 PUSH2 0x9E SWAP2 SWAP1 PUSH2 0x841 JUMP JUMPDEST PUSH2 0x2E1 JUMP JUMPDEST PUSH1 0x40 MLOAD PUSH2 0xB5 SWAP7 SWAP6 SWAP5 SWAP4 SWAP3 SWAP2 SWAP1 PUSH2 0xA7E JUMP JUMPDEST PUSH1 0x40 MLOAD DUP1 SWAP2 SUB SWAP1 RETURN JUMPDEST PUSH2 0xD8 PUSH1 0x4 DUP1 CALLDATASIZE SUB DUP2 ADD SWAP1 PUSH2 0xD3 SWAP2 SWAP1 PUSH2 0xC41 JUMP JUMPDEST PUSH2 0x452 JUMP JUMPDEST STOP JUMPDEST PUSH2 0xE2 PUSH2 0x5C2 JUMP JUMPDEST PUSH1 0x40 MLOAD PUSH2 0xEF SWAP2 SWAP1 PUSH2 0xE25 JUMP JUMPDEST PUSH1 0x40 MLOAD DUP1 SWAP2 SUB SWAP1 RETURN JUMPDEST PUSH2 0x100 PUSH2 0x7AF JUMP JUMPDEST PUSH1 0x40 MLOAD PUSH2 0x10D SWAP2 SWAP1 PUSH2 0xE45 JUMP JUMPDEST PUSH1 0x40 MLOAD DUP1 SWAP2 SUB SWAP1 RETURN JUMPDEST PUSH2 0x11E PUSH2 0x7B5 JUMP JUMPDEST PUSH0 DUP3 DUP2 SLOAD DUP2 LT PUSH2 0x131 JUMPI PUSH2 0x130 PUSH2 0xE5E JUMP JUMPDEST JUMPDEST SWAP1 PUSH0 MSTORE PUSH1 0x20 PUSH0 KECCAK256 SWAP1 PUSH1 0x6 MUL ADD PUSH1 0x40 MLOAD DUP1 PUSH1 0xC0 ADD PUSH1 0x40 MSTORE SWAP1 DUP2 PUSH0 DUP3 ADD PUSH0 SWAP1 SLOAD SWAP1 PUSH2 0x100 EXP SWAP1 DIV PUSH20 0xFFFFFFFFFFFFFFFFFFFFFFFFFFFFFFFFFFFFFFFF AND PUSH20 0xFFFFFFFFFFFFFFFFFFFFFFFFFFFFFFFFFFFFFFFF AND PUSH20 0xFFFFFFFFFFFFFFFFFFFFFFFFFFFFFFFFFFFFFFFF AND DUP2 MSTORE PUSH1 0x20 ADD PUSH1 0x1 DUP3 ADD DUP1 SLOAD PUSH2 0x1AC SWAP1 PUSH2 0xEB8 JUMP JUMPDEST DUP1 PUSH1 0x1F ADD PUSH1 0x20 DUP1 SWAP2 DIV MUL PUSH1 0x20 ADD PUSH1 0x40 MLOAD SWAP1 DUP2 ADD PUSH1 0x40 MSTORE DUP1 SWAP3 SWAP2 SWAP1 DUP2 DUP2 MSTORE PUSH1 0x20 ADD DUP3 DUP1 SLOAD PUSH2 0x1D8 SWAP1 PUSH2 0xEB8 JUMP JUMPDEST DUP1 ISZERO PUSH2 0x223 JUMPI DUP1 PUSH1 0x1F LT PUSH2 0x1FA JUMPI PUSH2 0x100 DUP1 DUP4 SLOAD DIV MUL DUP4 MSTORE SWAP2 PUSH1 0x20 ADD SWAP2 PUSH2 0x223 JUMP JUMPDEST DUP3 ADD SWAP2 SWAP1 PUSH0 MSTORE PUSH1 0x20 PUSH0 KECCAK256 SWAP1 JUMPDEST DUP2 SLOAD DUP2 MSTORE SWAP1 PUSH1 0x1 ADD SWAP1 PUSH1 0x20 ADD DUP1 DUP4 GT PUSH2 0x206 JUMPI DUP3 SWAP1 SUB PUSH1 0x1F AND DUP3 ADD SWAP2 JUMPDEST POP POP POP POP POP DUP2 MSTORE PUSH1 0x20 ADD PUSH1 0x2 DUP3 ADD DUP1 SLOAD PUSH2 0x23C SWAP1 PUSH2 0xEB8 JUMP JUMPDEST DUP1 PUSH1 0x1F ADD PUSH1 0x20 DUP1 SWAP2 DIV MUL PUSH1 0x20 ADD PUSH1 0x40 MLOAD SWAP1 DUP2 ADD PUSH1 0x40 MSTORE DUP1 SWAP3 SWAP2 SWAP1 DUP2 DUP2 MSTORE PUSH1 0x20 ADD DUP3 DUP1 SLOAD PUSH2 0x268 SWAP1 PUSH2 0xEB8 JUMP JUMPDEST DUP1 ISZERO PUSH2 0x2B3 JUMPI DUP1 PUSH1 0x1F LT PUSH2 0x28A JUMPI PUSH2 0x100 DUP1 DUP4 SLOAD DIV MUL DUP4 MSTORE SWAP2 PUSH1 0x20 ADD SWAP2 PUSH2 0x2B3 JUMP JUMPDEST DUP3 ADD SWAP2 SWAP1 PUSH0 MSTORE PUSH1 0x20 PUSH0 KECCAK256 SWAP1 JUMPDEST DUP2 SLOAD DUP2 MSTORE SWAP1 PUSH1 0x1 ADD SWAP1 PUSH1 0x20 ADD DUP1 DUP4 GT PUSH2 0x296 JUMPI DUP3 SWAP1 SUB PUSH1 0x1F AND DUP3 ADD SWAP2 JUMPDEST POP POP POP POP POP DUP2 MSTORE PUSH1 0x20 ADD PUSH1 0x3 DUP3 ADD SLOAD DUP2 MSTORE PUSH1 0x20 ADD PUSH1 0x4 DUP3 ADD SLOAD DUP2 MSTORE PUSH1 0x20 ADD PUSH1 0x5 DUP3 ADD SLOAD DUP2 MSTORE POP POP SWAP1 POP SWAP2 SWAP1 POP JUMP JUMPDEST PUSH0 DUP2 DUP2 SLOAD DUP2 LT PUSH2 0x2EF JUMPI PUSH0 DUP1 REVERT JUMPDEST SWAP1 PUSH0 MSTORE PUSH1 0x20 PUSH0 KECCAK256 SWAP1 PUSH1 0x6 MUL ADD PUSH0 SWAP2 POP SWAP1 POP DUP1 PUSH0 ADD PUSH0 SWAP1 SLOAD SWAP1 PUSH2 0x100 EXP SWAP1 DIV PUSH20 0xFFFFFFFFFFFFFFFFFFFFFFFFFFFFFFFFFFFFFFFF AND SWAP1 DUP1 PUSH1 0x1 ADD DUP1 SLOAD PUSH2 0x333 SWAP1 PUSH2 0xEB8 JUMP JUMPDEST DUP1 PUSH1 0x1F ADD PUSH1 0x20 DUP1 SWAP2 DIV MUL PUSH1 0x20 ADD PUSH1 0x40 MLOAD SWAP1 DUP2 ADD PUSH1 0x40 MSTORE DUP1 SWAP3 SWAP2 SWAP1 DUP2 DUP2 MSTORE PUSH1 0x20 ADD DUP3 DUP1 SLOAD PUSH2 0x35F SWAP1 PUSH2 0xEB8 JUMP JUMPDEST DUP1 ISZERO PUSH2 0x3AA JUMPI DUP1 PUSH1 0x1F LT PUSH2 0x381 JUMPI PUSH2 0x100 DUP1 DUP4 SLOAD DIV MUL DUP4 MSTORE SWAP2 PUSH1 0x20 ADD SWAP2 PUSH2 0x3AA JUMP JUMPDEST DUP3 ADD SWAP2 SWAP1 PUSH0 MSTORE PUSH1 0x20 PUSH0 KECCAK256 SWAP1 JUMPDEST DUP2 SLOAD DUP2 MSTORE SWAP1 PUSH1 0x1 ADD SWAP1 PUSH1 0x20 ADD DUP1 DUP4 GT PUSH2 0x38D JUMPI DUP3 SWAP1 SUB PUSH1 0x1F AND DUP3 ADD SWAP2 JUMPDEST POP POP POP POP POP SWAP1 DUP1 PUSH1 0x2 ADD DUP1 SLOAD PUSH2 0x3BF SWAP1 PUSH2 0xEB8 JUMP JUMPDEST DUP1 PUSH1 0x1F ADD PUSH1 0x20 DUP1 SWAP2 DIV MUL PUSH1 0x20 ADD PUSH1 0x40 MLOAD SWAP1 DUP2 ADD PUSH1 0x40 MSTORE DUP1 SWAP3 SWAP2 SWAP1 DUP2 DUP2 MSTORE PUSH1 0x20 ADD DUP3 DUP1 SLOAD PUSH2 0x3EB SWAP1 PUSH2 0xEB8 JUMP JUMPDEST DUP1 ISZERO PUSH2 0x436 JUMPI DUP1 PUSH1 0x1F LT PUSH2 0x40D JUMPI PUSH2 0x100 DUP1 DUP4 SLOAD DIV MUL DUP4 MSTORE SWAP2 PUSH1 0x20 ADD SWAP2 PUSH2 0x436 JUMP JUMPDEST DUP3 ADD SWAP2 SWAP1 PUSH0 MSTORE PUSH1 0x20 PUSH0 KECCAK256 SWAP1 JUMPDEST DUP2 SLOAD DUP2 MSTORE SWAP1 PUSH1 0x1 ADD SWAP1 PUSH1 0x20 ADD DUP1 DUP4 GT PUSH2 0x419 JUMPI DUP3 SWAP1 SUB PUSH1 0x1F AND DUP3 ADD SWAP2 JUMPDEST POP POP POP POP POP SWAP1 DUP1 PUSH1 0x3 ADD SLOAD SWAP1 DUP1 PUSH1 0x4 ADD SLOAD SWAP1 DUP1 PUSH1 0x5 ADD SLOAD SWAP1 POP DUP7 JUMP JUMPDEST PUSH0 PUSH1 0x40 MLOAD DUP1 PUSH1 0xC0 ADD PUSH1 0x40 MSTORE DUP1 CALLER PUSH20 0xFFFFFFFFFFFFFFFFFFFFFFFFFFFFFFFFFFFFFFFF AND DUP2 MSTORE PUSH1 0x20 ADD DUP7 DUP2 MSTORE PUSH1 0x20 ADD DUP6 DUP2 MSTORE PUSH1 0x20 ADD DUP5 DUP2 MSTORE PUSH1 0x20 ADD DUP4 DUP2 MSTORE PUSH1 0x20 ADD TIMESTAMP DUP2 MSTORE POP SWAP1 POP PUSH0 DUP2 SWAP1 DUP1 PUSH1 0x1 DUP2 SLOAD ADD DUP1 DUP3 SSTORE DUP1 SWAP2 POP POP PUSH1 0x1 SWAP1 SUB SWAP1 PUSH0 MSTORE PUSH1 0x20 PUSH0 KECCAK256 SWAP1 PUSH1 0x6 MUL ADD PUSH0 SWAP1 SWAP2 SWAP1 SWAP2 SWAP1 SWAP2 POP PUSH0 DUP3 ADD MLOAD DUP2 PUSH0 ADD PUSH0 PUSH2 0x100 EXP DUP2 SLOAD DUP2 PUSH20 0xFFFFFFFFFFFFFFFFFFFFFFFFFFFFFFFFFFFFFFFF MUL NOT AND SWAP1 DUP4 PUSH20 0xFFFFFFFFFFFFFFFFFFFFFFFFFFFFFFFFFFFFFFFF AND MUL OR SWAP1 SSTORE POP PUSH1 0x20 DUP3 ADD MLOAD DUP2 PUSH1 0x1 ADD SWAP1 DUP2 PUSH2 0x519 SWAP2 SWAP1 PUSH2 0x1085 JUMP JUMPDEST POP PUSH1 0x40 DUP3 ADD MLOAD DUP2 PUSH1 0x2 ADD SWAP1 DUP2 PUSH2 0x52F SWAP2 SWAP1 PUSH2 0x1085 JUMP JUMPDEST POP PUSH1 0x60 DUP3 ADD MLOAD DUP2 PUSH1 0x3 ADD SSTORE PUSH1 0x80 DUP3 ADD MLOAD DUP2 PUSH1 0x4 ADD SSTORE PUSH1 0xA0 DUP3 ADD MLOAD DUP2 PUSH1 0x5 ADD SSTORE POP POP PUSH1 0x1 PUSH0 DUP2 SLOAD DUP1 SWAP3 SWAP2 SWAP1 PUSH2 0x562 SWAP1 PUSH2 0x1181 JUMP JUMPDEST SWAP2 SWAP1 POP SSTORE POP CALLER PUSH20 0xFFFFFFFFFFFFFFFFFFFFFFFFFFFFFFFFFFFFFFFF AND PUSH32 0xC6D4887FB446496AFDC92449B51FEB1A6E8B0D557261162AD0DF52E2EE19ACE9 DUP7 DUP7 DUP7 TIMESTAMP PUSH1 0x40 MLOAD PUSH2 0x5B3 SWAP5 SWAP4 SWAP3 SWAP2 SWAP1 PUSH2 0x11C8 JUMP JUMPDEST PUSH1 0x40 MLOAD DUP1 SWAP2 SUB SWAP1 LOG2 POP POP POP POP POP JUMP JUMPDEST PUSH1 0x60 PUSH0 DUP1 SLOAD DUP1 PUSH1 0x20 MUL PUSH1 0x20 ADD PUSH1 0x40 MLOAD SWAP1 DUP2 ADD PUSH1 0x40 MSTORE DUP1 SWAP3 SWAP2 SWAP1 DUP2 DUP2 MSTORE PUSH1 0x20 ADD PUSH0 SWAP1 JUMPDEST DUP3 DUP3 LT ISZERO PUSH2 0x7A6 JUMPI DUP4 DUP3 SWAP1 PUSH0 MSTORE PUSH1 0x20 PUSH0 KECCAK256 SWAP1 PUSH1 0x6 MUL ADD PUSH1 0x40 MLOAD DUP1 PUSH1 0xC0 ADD PUSH1 0x40 MSTORE SWAP1 DUP2 PUSH0 DUP3 ADD PUSH0 SWAP1 SLOAD SWAP1 PUSH2 0x100 EXP SWAP1 DIV PUSH20 0xFFFFFFFFFFFFFFFFFFFFFFFFFFFFFFFFFFFFFFFF AND PUSH20 0xFFFFFFFFFFFFFFFFFFFFFFFFFFFFFFFFFFFFFFFF AND PUSH20 0xFFFFFFFFFFFFFFFFFFFFFFFFFFFFFFFFFFFFFFFF AND DUP2 MSTORE PUSH1 0x20 ADD PUSH1 0x1 DUP3 ADD DUP1 SLOAD PUSH2 0x669 SWAP1 PUSH2 0xEB8 JUMP JUMPDEST DUP1 PUSH1 0x1F ADD PUSH1 0x20 DUP1 SWAP2 DIV MUL PUSH1 0x20 ADD PUSH1 0x40 MLOAD SWAP1 DUP2 ADD PUSH1 0x40 MSTORE DUP1 SWAP3 SWAP2 SWAP1 DUP2 DUP2 MSTORE PUSH1 0x20 ADD DUP3 DUP1 SLOAD PUSH2 0x695 SWAP1 PUSH2 0xEB8 JUMP JUMPDEST DUP1 ISZERO PUSH2 0x6E0 JUMPI DUP1 PUSH1 0x1F LT PUSH2 0x6B7 JUMPI PUSH2 0x100 DUP1 DUP4 SLOAD DIV MUL DUP4 MSTORE SWAP2 PUSH1 0x20 ADD SWAP2 PUSH2 0x6E0 JUMP JUMPDEST DUP3 ADD SWAP2 SWAP1 PUSH0 MSTORE PUSH1 0x20 PUSH0 KECCAK256 SWAP1 JUMPDEST DUP2 SLOAD DUP2 MSTORE SWAP1 PUSH1 0x1 ADD SWAP1 PUSH1 0x20 ADD DUP1 DUP4 GT PUSH2 0x6C3 JUMPI DUP3 SWAP1 SUB PUSH1 0x1F AND DUP3 ADD SWAP2 JUMPDEST POP POP POP POP POP DUP2 MSTORE PUSH1 0x20 ADD PUSH1 0x2 DUP3 ADD DUP1 SLOAD PUSH2 0x6F9 SWAP1 PUSH2 0xEB8 JUMP JUMPDEST DUP1 PUSH1 0x1F ADD PUSH1 0x20 DUP1 SWAP2 DIV MUL PUSH1 0x20 ADD PUSH1 0x40 MLOAD SWAP1 DUP2 ADD PUSH1 0x40 MSTORE DUP1 SWAP3 SWAP2 SWAP1 DUP2 DUP2 MSTORE PUSH1 0x20 ADD DUP3 DUP1 SLOAD PUSH2 0x725 SWAP1 PUSH2 0xEB8 JUMP JUMPDEST DUP1 ISZERO PUSH2 0x770 JUMPI DUP1 PUSH1 0x1F LT PUSH2 0x747 JUMPI PUSH2 0x100 DUP1 DUP4 SLOAD DIV MUL DUP4 MSTORE SWAP2 PUSH1 0x20 ADD SWAP2 PUSH2 0x770 JUMP JUMPDEST DUP3 ADD SWAP2 SWAP1 PUSH0 MSTORE PUSH1 0x20 PUSH0 KECCAK256 SWAP1 JUMPDEST DUP2 SLOAD DUP2 MSTORE SWAP1 PUSH1 0x1 ADD SWAP1 PUSH1 0x20 ADD DUP1 DUP4 GT PUSH2 0x753 JUMPI DUP3 SWAP1 SUB PUSH1 0x1F AND DUP3 ADD SWAP2 JUMPDEST POP POP POP POP POP DUP2 MSTORE PUSH1 0x20 ADD PUSH1 0x3 DUP3 ADD SLOAD DUP2 MSTORE PUSH1 0x20 ADD PUSH1 0x4 DUP3 ADD SLOAD DUP2 MSTORE PUSH1 0x20 ADD PUSH1 0x5 DUP3 ADD SLOAD DUP2 MSTORE POP POP DUP2 MSTORE PUSH1 0x20 ADD SWAP1 PUSH1 0x1 ADD SWAP1 PUSH2 0x5E4 JUMP JUMPDEST POP POP POP POP SWAP1 POP SWAP1 JUMP JUMPDEST PUSH1 0x1 SLOAD DUP2 JUMP JUMPDEST PUSH1 0x40 MLOAD DUP1 PUSH1 0xC0 ADD PUSH1 0x40 MSTORE DUP1 PUSH0 PUSH20 0xFFFFFFFFFFFFFFFFFFFFFFFFFFFFFFFFFFFFFFFF AND DUP2 MSTORE PUSH1 0x20 ADD PUSH1 0x60 DUP2 MSTORE PUSH1 0x20 ADD PUSH1 0x60 DUP2 MSTORE PUSH1 0x20 ADD PUSH0 DUP2 MSTORE PUSH1 0x20 ADD PUSH0 DUP2 MSTORE PUSH1 0x20 ADD PUSH0 DUP2 MSTORE POP SWAP1 JUMP JUMPDEST PUSH0 PUSH1 0x40 MLOAD SWAP1 POP SWAP1 JUMP JUMPDEST PUSH0 DUP1 REVERT JUMPDEST PUSH0 DUP1 REVERT JUMPDEST PUSH0 DUP2 SWAP1 POP SWAP2 SWAP1 POP JUMP JUMPDEST PUSH2 0x820 DUP2 PUSH2 0x80E JUMP JUMPDEST DUP2 EQ PUSH2 0x82A JUMPI PUSH0 DUP1 REVERT JUMPDEST POP JUMP JUMPDEST PUSH0 DUP2 CALLDATALOAD SWAP1 POP PUSH2 0x83B DUP2 PUSH2 0x817 JUMP JUMPDEST SWAP3 SWAP2 POP POP JUMP JUMPDEST PUSH0 PUSH1 0x20 DUP3 DUP5 SUB SLT ISZERO PUSH2 0x856 JUMPI PUSH2 0x855 PUSH2 0x806 JUMP JUMPDEST JUMPDEST PUSH0 PUSH2 0x863 DUP5 DUP3 DUP6 ADD PUSH2 0x82D JUMP JUMPDEST SWAP2 POP POP SWAP3 SWAP2 POP POP JUMP JUMPDEST PUSH0 PUSH20 0xFFFFFFFFFFFFFFFFFFFFFFFFFFFFFFFFFFFFFFFF DUP3 AND SWAP1 POP SWAP2 SWAP1 POP JUMP JUMPDEST PUSH0 PUSH2 0x895 DUP3 PUSH2 0x86C JUMP JUMPDEST SWAP1 POP SWAP2 SWAP1 POP JUMP JUMPDEST PUSH2 0x8A5 DUP2 PUSH2 0x88B JUMP JUMPDEST DUP3 MSTORE POP POP JUMP JUMPDEST PUSH0 DUP2 MLOAD SWAP1 POP SWAP2 SWAP1 POP JUMP JUMPDEST PUSH0 DUP3 DUP3 MSTORE PUSH1 0x20 DUP3 ADD SWAP1 POP SWAP3 SWAP2 POP POP JUMP JUMPDEST PUSH0 JUMPDEST DUP4 DUP2 LT ISZERO PUSH2 0x8E2 JUMPI DUP1 DUP3 ADD MLOAD DUP2 DUP5 ADD MSTORE PUSH1 0x20 DUP2 ADD SWAP1 POP PUSH2 0x8C7 JUMP JUMPDEST PUSH0 DUP5 DUP5 ADD MSTORE POP POP POP POP JUMP JUMPDEST PUSH0 PUSH1 0x1F NOT PUSH1 0x1F DUP4 ADD AND SWAP1 POP SWAP2 SWAP1 POP JUMP JUMPDEST PUSH0 PUSH2 0x907 DUP3 PUSH2 0x8AB JUMP JUMPDEST PUSH2 0x911 DUP2 DUP6 PUSH2 0x8B5 JUMP JUMPDEST SWAP4 POP PUSH2 0x921 DUP2 DUP6 PUSH1 0x20 DUP7 ADD PUSH2 0x8C5 JUMP JUMPDEST PUSH2 0x92A DUP2 PUSH2 0x8ED JUMP JUMPDEST DUP5 ADD SWAP2 POP POP SWAP3 SWAP2 POP POP JUMP JUMPDEST PUSH0 DUP2 SWAP1 POP SWAP2 SWAP1 POP JUMP JUMPDEST PUSH2 0x947 DUP2 PUSH2 0x935 JUMP JUMPDEST DUP3 MSTORE POP POP JUMP JUMPDEST PUSH2 0x956 DUP2 PUSH2 0x80E JUMP JUMPDEST DUP3 MSTORE POP POP JUMP JUMPDEST PUSH0 PUSH1 0xC0 DUP4 ADD PUSH0 DUP4 ADD MLOAD PUSH2 0x971 PUSH0 DUP7 ADD DUP3 PUSH2 0x89C JUMP JUMPDEST POP PUSH1 0x20 DUP4 ADD MLOAD DUP5 DUP3 SUB PUSH1 0x20 DUP7 ADD MSTORE PUSH2 0x989 DUP3 DUP3 PUSH2 0x8FD JUMP JUMPDEST SWAP2 POP POP PUSH1 0x40 DUP4 ADD MLOAD DUP5 DUP3 SUB PUSH1 0x40 DUP7 ADD MSTORE PUSH2 0x9A3 DUP3 DUP3 PUSH2 0x8FD JUMP JUMPDEST SWAP2 POP POP PUSH1 0x60 DUP4 ADD MLOAD PUSH2 0x9B8 PUSH1 0x60 DUP7 ADD DUP3 PUSH2 0x93E JUMP JUMPDEST POP PUSH1 0x80 DUP4 ADD MLOAD PUSH2 0x9CB PUSH1 0x80 DUP7 ADD DUP3 PUSH2 0x93E JUMP JUMPDEST POP PUSH1 0xA0 DUP4 ADD MLOAD PUSH2 0x9DE PUSH1 0xA0 DUP7 ADD DUP3 PUSH2 0x94D JUMP JUMPDEST POP DUP1 SWAP2 POP POP SWAP3 SWAP2 POP POP JUMP JUMPDEST PUSH0 PUSH1 0x20 DUP3 ADD SWAP1 POP DUP2 DUP2 SUB PUSH0 DUP4 ADD MSTORE PUSH2 0xA01 DUP2 DUP5 PUSH2 0x95C JUMP JUMPDEST SWAP1 POP SWAP3 SWAP2 POP POP JUMP JUMPDEST PUSH2 0xA12 DUP2 PUSH2 0x88B JUMP JUMPDEST DUP3 MSTORE POP POP JUMP JUMPDEST PUSH0 DUP3 DUP3 MSTORE PUSH1 0x20 DUP3 ADD SWAP1 POP SWAP3 SWAP2 POP POP JUMP JUMPDEST PUSH0 PUSH2 0xA32 DUP3 PUSH2 0x8AB JUMP JUMPDEST PUSH2 0xA3C DUP2 DUP6 PUSH2 0xA18 JUMP JUMPDEST SWAP4 POP PUSH2 0xA4C DUP2 DUP6 PUSH1 0x20 DUP7 ADD PUSH2 0x8C5 JUMP JUMPDEST PUSH2 0xA55 DUP2 PUSH2 0x8ED JUMP JUMPDEST DUP5 ADD SWAP2 POP POP SWAP3 SWAP2 POP POP JUMP JUMPDEST PUSH2 0xA69 DUP2 PUSH2 0x935 JUMP JUMPDEST DUP3 MSTORE POP POP JUMP JUMPDEST PUSH2 0xA78 DUP2 PUSH2 0x80E JUMP JUMPDEST DUP3 MSTORE POP POP JUMP JUMPDEST PUSH0 PUSH1 0xC0 DUP3 ADD SWAP1 POP PUSH2 0xA91 PUSH0 DUP4 ADD DUP10 PUSH2 0xA09 JUMP JUMPDEST DUP2 DUP2 SUB PUSH1 0x20 DUP4 ADD MSTORE PUSH2 0xAA3 DUP2 DUP9 PUSH2 0xA28 JUMP JUMPDEST SWAP1 POP DUP2 DUP2 SUB PUSH1 0x40 DUP4 ADD MSTORE PUSH2 0xAB7 DUP2 DUP8 PUSH2 0xA28 JUMP JUMPDEST SWAP1 POP PUSH2 0xAC6 PUSH1 0x60 DUP4 ADD DUP7 PUSH2 0xA60 JUMP JUMPDEST PUSH2 0xAD3 PUSH1 0x80 DUP4 ADD DUP6 PUSH2 0xA60 JUMP JUMPDEST PUSH2 0xAE0 PUSH1 0xA0 DUP4 ADD DUP5 PUSH2 0xA6F JUMP JUMPDEST SWAP8 SWAP7 POP POP POP POP POP POP POP JUMP JUMPDEST PUSH0 DUP1 REVERT JUMPDEST PUSH0 DUP1 REVERT JUMPDEST PUSH32 0x4E487B7100000000000000000000000000000000000000000000000000000000 PUSH0 MSTORE PUSH1 0x41 PUSH1 0x4 MSTORE PUSH1 0x24 PUSH0 REVERT JUMPDEST PUSH2 0xB29 DUP3 PUSH2 0x8ED JUMP JUMPDEST DUP2 ADD DUP2 DUP2 LT PUSH8 0xFFFFFFFFFFFFFFFF DUP3 GT OR ISZERO PUSH2 0xB48 JUMPI PUSH2 0xB47 PUSH2 0xAF3 JUMP JUMPDEST JUMPDEST DUP1 PUSH1 0x40 MSTORE POP POP POP JUMP JUMPDEST PUSH0 PUSH2 0xB5A PUSH2 0x7FD JUMP JUMPDEST SWAP1 POP PUSH2 0xB66 DUP3 DUP3 PUSH2 0xB20 JUMP JUMPDEST SWAP2 SWAP1 POP JUMP JUMPDEST PUSH0 PUSH8 0xFFFFFFFFFFFFFFFF DUP3 GT ISZERO PUSH2 0xB85 JUMPI PUSH2 0xB84 PUSH2 0xAF3 JUMP JUMPDEST JUMPDEST PUSH2 0xB8E DUP3 PUSH2 0x8ED JUMP JUMPDEST SWAP1 POP PUSH1 0x20 DUP2 ADD SWAP1 POP SWAP2 SWAP1 POP JUMP JUMPDEST DUP3 DUP2 DUP4 CALLDATACOPY PUSH0 DUP4 DUP4 ADD MSTORE POP POP POP JUMP JUMPDEST PUSH0 PUSH2 0xBBB PUSH2 0xBB6 DUP5 PUSH2 0xB6B JUMP JUMPDEST PUSH2 0xB51 JUMP JUMPDEST SWAP1 POP DUP3 DUP2 MSTORE PUSH1 0x20 DUP2 ADD DUP5 DUP5 DUP5 ADD GT ISZERO PUSH2 0xBD7 JUMPI PUSH2 0xBD6 PUSH2 0xAEF JUMP JUMPDEST JUMPDEST PUSH2 0xBE2 DUP5 DUP3 DUP6 PUSH2 0xB9B JUMP JUMPDEST POP SWAP4 SWAP3 POP POP POP JUMP JUMPDEST PUSH0 DUP3 PUSH1 0x1F DUP4 ADD SLT PUSH2 0xBFE JUMPI PUSH2 0xBFD PUSH2 0xAEB JUMP JUMPDEST JUMPDEST DUP2 CALLDATALOAD PUSH2 0xC0E DUP5 DUP3 PUSH1 0x20 DUP7 ADD PUSH2 0xBA9 JUMP JUMPDEST SWAP2 POP POP SWAP3 SWAP2 POP POP JUMP JUMPDEST PUSH2 0xC20 DUP2 PUSH2 0x935 JUMP JUMPDEST DUP2 EQ PUSH2 0xC2A JUMPI PUSH0 DUP1 REVERT JUMPDEST POP JUMP JUMPDEST PUSH0 DUP2 CALLDATALOAD SWAP1 POP PUSH2 0xC3B DUP2 PUSH2 0xC17 JUMP JUMPDEST SWAP3 SWAP2 POP POP JUMP JUMPDEST PUSH0 DUP1 PUSH0 DUP1 PUSH1 0x80 DUP6 DUP8 SUB SLT ISZERO PUSH2 0xC59 JUMPI PUSH2 0xC58 PUSH2 0x806 JUMP JUMPDEST JUMPDEST PUSH0 DUP6 ADD CALLDATALOAD PUSH8 0xFFFFFFFFFFFFFFFF DUP2 GT ISZERO PUSH2 0xC76 JUMPI PUSH2 0xC75 PUSH2 0x80A JUMP JUMPDEST JUMPDEST PUSH2 0xC82 DUP8 DUP3 DUP9 ADD PUSH2 0xBEA JUMP JUMPDEST SWAP5 POP POP PUSH1 0x20 DUP6 ADD CALLDATALOAD PUSH8 0xFFFFFFFFFFFFFFFF DUP2 GT ISZERO PUSH2 0xCA3 JUMPI PUSH2 0xCA2 PUSH2 0x80A JUMP JUMPDEST JUMPDEST PUSH2 0xCAF DUP8 DUP3 DUP9 ADD PUSH2 0xBEA JUMP JUMPDEST SWAP4 POP POP PUSH1 0x40 PUSH2 0xCC0 DUP8 DUP3 DUP9 ADD PUSH2 0xC2D JUMP JUMPDEST SWAP3 POP POP PUSH1 0x60 PUSH2 0xCD1 DUP8 DUP3 DUP9 ADD PUSH2 0xC2D JUMP JUMPDEST SWAP2 POP POP SWAP3 SWAP6 SWAP2 SWAP5 POP SWAP3 POP JUMP JUMPDEST PUSH0 DUP2 MLOAD SWAP1 POP SWAP2 SWAP1 POP JUMP JUMPDEST PUSH0 DUP3 DUP3 MSTORE PUSH1 0x20 DUP3 ADD SWAP1 POP SWAP3 SWAP2 POP POP JUMP JUMPDEST PUSH0 DUP2 SWAP1 POP PUSH1 0x20 DUP3 ADD SWAP1 POP SWAP2 SWAP1 POP JUMP JUMPDEST PUSH0 PUSH1 0xC0 DUP4 ADD PUSH0 DUP4 ADD MLOAD PUSH2 0xD1B PUSH0 DUP7 ADD DUP3 PUSH2 0x89C JUMP JUMPDEST POP PUSH1 0x20 DUP4 ADD MLOAD DUP5 DUP3 SUB PUSH1 0x20 DUP7 ADD MSTORE PUSH2 0xD33 DUP3 DUP3 PUSH2 0x8FD JUMP JUMPDEST SWAP2 POP POP PUSH1 0x40 DUP4 ADD MLOAD DUP5 DUP3 SUB PUSH1 0x40 DUP7 ADD MSTORE PUSH2 0xD4D DUP3 DUP3 PUSH2 0x8FD JUMP JUMPDEST SWAP2 POP POP PUSH1 0x60 DUP4 ADD MLOAD PUSH2 0xD62 PUSH1 0x60 DUP7 ADD DUP3 PUSH2 0x93E JUMP JUMPDEST POP PUSH1 0x80 DUP4 ADD MLOAD PUSH2 0xD75 PUSH1 0x80 DUP7 ADD DUP3 PUSH2 0x93E JUMP JUMPDEST POP PUSH1 0xA0 DUP4 ADD MLOAD PUSH2 0xD88 PUSH1 0xA0 DUP7 ADD DUP3 PUSH2 0x94D JUMP JUMPDEST POP DUP1 SWAP2 POP POP SWAP3 SWAP2 POP POP JUMP JUMPDEST PUSH0 PUSH2 0xD9E DUP4 DUP4 PUSH2 0xD06 JUMP JUMPDEST SWAP1 POP SWAP3 SWAP2 POP POP JUMP JUMPDEST PUSH0 PUSH1 0x20 DUP3 ADD SWAP1 POP SWAP2 SWAP1 POP JUMP JUMPDEST PUSH0 PUSH2 0xDBC DUP3 PUSH2 0xCDD JUMP JUMPDEST PUSH2 0xDC6 DUP2 DUP6 PUSH2 0xCE7 JUMP JUMPDEST SWAP4 POP DUP4 PUSH1 0x20 DUP3 MUL DUP6 ADD PUSH2 0xDD8 DUP6 PUSH2 0xCF7 JUMP JUMPDEST DUP1 PUSH0 JUMPDEST DUP6 DUP2 LT ISZERO PUSH2 0xE13 JUMPI DUP5 DUP5 SUB DUP10 MSTORE DUP2 MLOAD PUSH2 0xDF4 DUP6 DUP3 PUSH2 0xD93 JUMP JUMPDEST SWAP5 POP PUSH2 0xDFF DUP4 PUSH2 0xDA6 JUMP JUMPDEST SWAP3 POP PUSH1 0x20 DUP11 ADD SWAP10 POP POP PUSH1 0x1 DUP2 ADD SWAP1 POP PUSH2 0xDDB JUMP JUMPDEST POP DUP3 SWAP8 POP DUP8 SWAP6 POP POP POP POP POP POP SWAP3 SWAP2 POP POP JUMP JUMPDEST PUSH0 PUSH1 0x20 DUP3 ADD SWAP1 POP DUP2 DUP2 SUB PUSH0 DUP4 ADD MSTORE PUSH2 0xE3D DUP2 DUP5 PUSH2 0xDB2 JUMP JUMPDEST SWAP1 POP SWAP3 SWAP2 POP POP JUMP JUMPDEST PUSH0 PUSH1 0x20 DUP3 ADD SWAP1 POP PUSH2 0xE58 PUSH0 DUP4 ADD DUP5 PUSH2 0xA6F JUMP JUMPDEST SWAP3 SWAP2 POP POP JUMP JUMPDEST PUSH32 0x4E487B7100000000000000000000000000000000000000000000000000000000 PUSH0 MSTORE PUSH1 0x32 PUSH1 0x4 MSTORE PUSH1 0x24 PUSH0 REVERT JUMPDEST PUSH32 0x4E487B7100000000000000000000000000000000000000000000000000000000 PUSH0 MSTORE PUSH1 0x22 PUSH1 0x4 MSTORE PUSH1 0x24 PUSH0 REVERT JUMPDEST PUSH0 PUSH1 0x2 DUP3 DIV SWAP1 POP PUSH1 0x1 DUP3 AND DUP1 PUSH2 0xECF JUMPI PUSH1 0x7F DUP3 AND SWAP2 POP JUMPDEST PUSH1 0x20 DUP3 LT DUP2 SUB PUSH2 0xEE2 JUMPI PUSH2 0xEE1 PUSH2 0xE8B JUMP JUMPDEST JUMPDEST POP SWAP2 SWAP1 POP JUMP JUMPDEST PUSH0 DUP2 SWAP1 POP DUP2 PUSH0 MSTORE PUSH1 0x20 PUSH0 KECCAK256 SWAP1 POP SWAP2 SWAP1 POP JUMP JUMPDEST PUSH0 PUSH1 0x20 PUSH1 0x1F DUP4 ADD DIV SWAP1 POP SWAP2 SWAP1 POP JUMP JUMPDEST PUSH0 DUP3 DUP3 SHL SWAP1 POP SWAP3 SWAP2 POP POP JUMP JUMPDEST PUSH0 PUSH1 0x8 DUP4 MUL PUSH2 0xF44 PUSH32 0xFFFFFFFFFFFFFFFFFFFFFFFFFFFFFFFFFFFFFFFFFFFFFFFFFFFFFFFFFFFFFFFF DUP3 PUSH2 0xF09 JUMP JUMPDEST PUSH2 0xF4E DUP7 DUP4 PUSH2 0xF09 JUMP JUMPDEST SWAP6 POP DUP1 NOT DUP5 AND SWAP4 POP DUP1 DUP7 AND DUP5 OR SWAP3 POP POP POP SWAP4 SWAP3 POP POP POP JUMP JUMPDEST PUSH0 DUP2 SWAP1 POP SWAP2 SWAP1 POP JUMP JUMPDEST PUSH0 PUSH2 0xF89 PUSH2 0xF84 PUSH2 0xF7F DUP5 PUSH2 0x80E JUMP JUMPDEST PUSH2 0xF66 JUMP JUMPDEST PUSH2 0x80E JUMP JUMPDEST SWAP1 POP SWAP2 SWAP1 POP JUMP JUMPDEST PUSH0 DUP2 SWAP1 POP SWAP2 SWAP1 POP JUMP JUMPDEST PUSH2 0xFA2 DUP4 PUSH2 0xF6F JUMP JUMPDEST PUSH2 0xFB6 PUSH2 0xFAE DUP3 PUSH2 0xF90 JUMP JUMPDEST DUP5 DUP5 SLOAD PUSH2 0xF15 JUMP JUMPDEST DUP3 SSTORE POP POP POP POP JUMP JUMPDEST PUSH0 SWAP1 JUMP JUMPDEST PUSH2 0xFCA PUSH2 0xFBE JUMP JUMPDEST PUSH2 0xFD5 DUP2 DUP5 DUP5 PUSH2 0xF99 JUMP JUMPDEST POP POP POP JUMP JUMPDEST JUMPDEST DUP2 DUP2 LT ISZERO PUSH2 0xFF8 JUMPI PUSH2 0xFED PUSH0 DUP3 PUSH2 0xFC2 JUMP JUMPDEST PUSH1 0x1 DUP2 ADD SWAP1 POP PUSH2 0xFDB JUMP JUMPDEST POP POP JUMP JUMPDEST PUSH1 0x1F DUP3 GT ISZERO PUSH2 0x103D JUMPI PUSH2 0x100E DUP2 PUSH2 0xEE8 JUMP JUMPDEST PUSH2 0x1017 DUP5 PUSH2 0xEFA JUMP JUMPDEST DUP2 ADD PUSH1 0x20 DUP6 LT ISZERO PUSH2 0x1026 JUMPI DUP2 SWAP1 POP JUMPDEST PUSH2 0x103A PUSH2 0x1032 DUP6 PUSH2 0xEFA JUMP JUMPDEST DUP4 ADD DUP3 PUSH2 0xFDA JUMP JUMPDEST POP POP JUMPDEST POP POP POP JUMP JUMPDEST PUSH0 DUP3 DUP3 SHR SWAP1 POP SWAP3 SWAP2 POP POP JUMP JUMPDEST PUSH0 PUSH2 0x105D PUSH0 NOT DUP5 PUSH1 0x8 MUL PUSH2 0x1042 JUMP JUMPDEST NOT DUP1 DUP4 AND SWAP2 POP POP SWAP3 SWAP2 POP POP JUMP JUMPDEST PUSH0 PUSH2 0x1075 DUP4 DUP4 PUSH2 0x104E JUMP JUMPDEST SWAP2 POP DUP3 PUSH1 0x2 MUL DUP3 OR SWAP1 POP SWAP3 SWAP2 POP POP JUMP JUMPDEST PUSH2 0x108E DUP3 PUSH2 0x8AB JUMP JUMPDEST PUSH8 0xFFFFFFFFFFFFFFFF DUP2 GT ISZERO PUSH2 0x10A7 JUMPI PUSH2 0x10A6 PUSH2 0xAF3 JUMP JUMPDEST JUMPDEST PUSH2 0x10B1 DUP3 SLOAD PUSH2 0xEB8 JUMP JUMPDEST PUSH2 0x10BC DUP3 DUP3 DUP6 PUSH2 0xFFC JUMP JUMPDEST PUSH0 PUSH1 0x20 SWAP1 POP PUSH1 0x1F DUP4 GT PUSH1 0x1 DUP2 EQ PUSH2 0x10ED JUMPI PUSH0 DUP5 ISZERO PUSH2 0x10DB JUMPI DUP3 DUP8 ADD MLOAD SWAP1 POP JUMPDEST PUSH2 0x10E5 DUP6 DUP3 PUSH2 0x106A JUMP JUMPDEST DUP7 SSTORE POP PUSH2 0x114C JUMP JUMPDEST PUSH1 0x1F NOT DUP5 AND PUSH2 0x10FB DUP7 PUSH2 0xEE8 JUMP JUMPDEST PUSH0 JUMPDEST DUP3 DUP2 LT ISZERO PUSH2 0x1122 JUMPI DUP5 DUP10 ADD MLOAD DUP3 SSTORE PUSH1 0x1 DUP3 ADD SWAP2 POP PUSH1 0x20 DUP6 ADD SWAP5 POP PUSH1 0x20 DUP2 ADD SWAP1 POP PUSH2 0x10FD JUMP JUMPDEST DUP7 DUP4 LT ISZERO PUSH2 0x113F JUMPI DUP5 DUP10 ADD MLOAD PUSH2 0x113B PUSH1 0x1F DUP10 AND DUP3 PUSH2 0x104E JUMP JUMPDEST DUP4 SSTORE POP JUMPDEST PUSH1 0x1 PUSH1 0x2 DUP9 MUL ADD DUP9 SSTORE POP POP POP JUMPDEST POP POP POP POP POP POP JUMP JUMPDEST PUSH32 0x4E487B7100000000000000000000000000000000000000000000000000000000 PUSH0 MSTORE PUSH1 0x11 PUSH1 0x4 MSTORE PUSH1 0x24 PUSH0 REVERT JUMPDEST PUSH0 PUSH2 0x118B DUP3 PUSH2 0x80E JUMP JUMPDEST SWAP2 POP PUSH32 0xFFFFFFFFFFFFFFFFFFFFFFFFFFFFFFFFFFFFFFFFFFFFFFFFFFFFFFFFFFFFFFFF DUP3 SUB PUSH2 0x11BD JUMPI PUSH2 0x11BC PUSH2 0x1154 JUMP JUMPDEST JUMPDEST PUSH1 0x1 DUP3 ADD SWAP1 POP SWAP2 SWAP1 POP JUMP JUMPDEST PUSH0 PUSH1 0x80 DUP3 ADD SWAP1 POP DUP2 DUP2 SUB PUSH0 DUP4 ADD MSTORE PUSH2 0x11E0 DUP2 DUP8 PUSH2 0xA28 JUMP JUMPDEST SWAP1 POP DUP2 DUP2 SUB PUSH1 0x20 DUP4 ADD MSTORE PUSH2 0x11F4 DUP2 DUP7 PUSH2 0xA28 JUMP JUMPDEST SWAP1 POP PUSH2 0x1203 PUSH1 0x40 DUP4 ADD DUP6 PUSH2 0xA60 JUMP JUMPDEST PUSH2 0x1210 PUSH1 0x60 DUP4 ADD DUP5 PUSH2 0xA6F JUMP JUMPDEST SWAP6 SWAP5 POP POP POP POP POP JUMP INVALID LOG2 PUSH5 0x6970667358 0x22 SLT KECCAK256 DUP14 0xBA EXTCODECOPY SHR PUSH21 0x134DACA105ED230E3494A05F25293ACE910787D3C5 LOG3 0xEC 0xB6 ADDRESS 0xEF 0xE8 PUSH5 0x736F6C6343 STOP ADDMOD XOR STOP CALLER "},"methodIdentifiers":{"getAllRecords()":"a7f9fe72","getRecord(uint256)":"03e9e609","logAction(string,string,int256,int256)":"8874410d","records(uint256)":"34461067","totalLogs()":"e4ce0662"}}}}}