{
  "_format": "hh3-artifact-1",
  "contractName": "AgentLedger",
  "sourceName": "contracts/AgentLedger.sol",
  "abi": [
    {
      "anonymous": false,
      "inputs": [
        {
          "indexed": true,
          "internalType": "address",
          "name": "agentAddress",
          "type": "address"
        },
        {
          "indexed": false,
          "internalType": "string",
          "name": "agentId",
          "type": "string"
        },
        {
          "indexed": false,
          "internalType": "string",
          "name": "action",
          "type": "string"
        },
        {
          "indexed": false,
          "internalType": "int256",
          "name": "price",
          "type": "int256"
        },
        {
          "indexed": false,
          "internalType": "uint256",
          "name": "timestamp",
          "type": "uint256"
        }
      ],
      "name": "ActionLogged",
      "type": "event"
    },
    {
      "inputs": [],
      "name": "getAllRecords",
      "outputs": [
        {
          "components": [
            {
              "internalType": "address",
              "name": "agentAddress",
              "type": "address"
            },
            {
              "internalType": "string",
              "name": "agentId",
              "type": "string"
            },
            {
              "internalType": "string",
              "name": "action",
              "type": "string"
            },
            {
              "internalType": "int256",
              "name": "price",
              "type": "int256"
            },
            {
              "internalType": "int256",
              "name": "rsi",
              "type": "int256"
            },
            {
              "internalType": "uint256",
              "name": "timestamp",
              "type": "uint256"
            }
          ],
          "internalType": "struct AgentLedger.AgentRecord[]",
          "name": "",
          "type": "tuple[]"
        }
      ],
      "stateMutability": "view",
      "type": "function"
    },
    {
      "inputs": [
        {
          "internalType": "uint256",
          "name": "index",
          "type": "uint256"
        }
      ],
      "name": "getRecord",
      "outputs": [
        {
          "components": [
            {
              "internalType": "address",
              "name": "agentAddress",
              "type": "address"
            },
            {
              "internalType": "string",
              "name": "agentId",
              "type": "string"
            },
            {
              "internalType": "string",
              "name": "action",
              "type": "string"
            },
            {
              "internalType": "int256",
              "name": "price",
              "type": "int256"
            },
            {
              "internalType": "int256",
              "name": "rsi",
              "type": "int256"
            },
            {
              "internalType": "uint256",
              "name": "timestamp",
              "type": "uint256"
            }
          ],
          "internalType": "struct AgentLedger.AgentRecord",
          "name": "",
          "type": "tuple"
        }
      ],
      "stateMutability": "view",
      "type": "function"
    },
    {
      "inputs": [
        {
          "internalType": "string",
          "name": "agentId",
          "type": "string"
        },
        {
          "internalType": "string",
          "name": "action",
          "type": "string"
        },
        {
          "internalType": "int256",
          "name": "price",
          "type": "int256"
        },
        {
          "internalType": "int256",
          "name": "rsi",
          "type": "int256"
        }
      ],
      "name": "logAction",
      "outputs": [],
      "stateMutability": "nonpayable",
      "type": "function"
    },
    {
      "inputs": [
        {
          "internalType": "uint256",
          "name": "",
          "type": "uint256"
        }
      ],
      "name": "records",
      "outputs": [
        {
          "internalType": "address",
          "name": "agentAddress",
          "type": "address"
        },
        {
          "internalType": "string",
          "name": "agentId",
          "type": "string"
        },
        {
          "internalType": "string",
          "name": "action",
          "type": "string"
        },
        {
          "internalType": "int256",
          "name": "price",
          "type": "int256"
        },
        {
          "internalType": "int256",
          "name": "rsi",
          "type": "int256"
        },
        {
          "internalType": "uint256",
          "name": "timestamp",
          "type": "uint256"
        }
      ],
      "stateMutability": "view",
      "type": "function"
    },
    {
      "inputs": [],
      "name": "totalLogs",
      "outputs": [
        {
          "internalType": "uint256",
          "name": "",
          "type": "uint256"
        }
      ],
      "stateMutability": "view",
      "type": "function"
    }
  ],
  "bytecode": "0x608060405234801561001057600080fd5b506112cf806100206000396000f3fe608060405234801561001057600080fd5b50600436106100575760003560e01c806303e9e6091461005c578063344610671461008c5780638874410d146100c1578063a7f9fe72146100dd578063e4ce0662146100fb575b600080fd5b61007660048036038101906100719190610875565b610119565b6040516100839190610a2b565b60405180910390f35b6100a660048036038101906100a19190610875565b6102ed565b6040516100b896959493929190610ac4565b60405180910390f35b6100db60048036038101906100d69190610c94565b610469565b005b6100e56105e2565b6040516100f29190610e85565b60405180910390f35b6101036107d9565b6040516101109190610ea7565b60405180910390f35b6101216107df565b6000828154811061013557610134610ec2565b5b90600052602060002090600602016040518060c00160405290816000820160009054906101000a900473ffffffffffffffffffffffffffffffffffffffff1673ffffffffffffffffffffffffffffffffffffffff1673ffffffffffffffffffffffffffffffffffffffff1681526020016001820180546101b490610f20565b80601f01602080910402602001604051908101604052809291908181526020018280546101e090610f20565b801561022d5780601f106102025761010080835404028352916020019161022d565b820191906000526020600020905b81548152906001019060200180831161021057829003601f168201915b5050505050815260200160028201805461024690610f20565b80601f016020809104026020016040519081016040528092919081815260200182805461027290610f20565b80156102bf5780601f10610294576101008083540402835291602001916102bf565b820191906000526020600020905b8154815290600101906020018083116102a257829003601f168201915b5050505050815260200160038201548152602001600482015481526020016005820154815250509050919050565b600081815481106102fd57600080fd5b90600052602060002090600602016000915090508060000160009054906101000a900473ffffffffffffffffffffffffffffffffffffffff169080600101805461034690610f20565b80601f016020809104026020016040519081016040528092919081815260200182805461037290610f20565b80156103bf5780601f10610394576101008083540402835291602001916103bf565b820191906000526020600020905b8154815290600101906020018083116103a257829003601f168201915b5050505050908060020180546103d490610f20565b80601f016020809104026020016040519081016040528092919081815260200182805461040090610f20565b801561044d5780601f106104225761010080835404028352916020019161044d565b820191906000526020600020905b81548152906001019060200180831161043057829003601f168201915b5050505050908060030154908060040154908060050154905086565b60006040518060c001604052803373ffffffffffffffffffffffffffffffffffffffff168152602001868152602001858152602001848152602001838152602001428152509050600081908060018154018082558091505060019003906000526020600020906006020160009091909190915060008201518160000160006101000a81548173ffffffffffffffffffffffffffffffffffffffff021916908373ffffffffffffffffffffffffffffffffffffffff160217905550602082015181600101908161053891906110fd565b50604082015181600201908161054e91906110fd565b50606082015181600301556080820151816004015560a08201518160050155505060016000815480929190610582906111fe565b91905055503373ffffffffffffffffffffffffffffffffffffffff167fc6d4887fb446496afdc92449b51feb1a6e8b0d557261162ad0df52e2ee19ace9868686426040516105d39493929190611246565b60405180910390a25050505050565b60606000805480602002602001604051908101604052809291908181526020016000905b828210156107d057838290600052602060002090600602016040518060c00160405290816000820160009054906101000a900473ffffffffffffffffffffffffffffffffffffffff1673ffffffffffffffffffffffffffffffffffffffff1673ffffffffffffffffffffffffffffffffffffffff16815260200160018201805461068f90610f20565b80601f01602080910402602001604051908101604052809291908181526020018280546106bb90610f20565b80156107085780601f106106dd57610100808354040283529160200191610708565b820191906000526020600020905b8154815290600101906020018083116106eb57829003601f168201915b5050505050815260200160028201805461072190610f20565b80601f016020809104026020016040519081016040528092919081815260200182805461074d90610f20565b801561079a5780601f1061076f5761010080835404028352916020019161079a565b820191906000526020600020905b81548152906001019060200180831161077d57829003601f168201915b50505050508152602001600382015481526020016004820154815260200160058201548152505081526020019060010190610606565b50505050905090565b60015481565b6040518060c00160405280600073ffffffffffffffffffffffffffffffffffffffff16815260200160608152602001606081526020016000815260200160008152602001600081525090565b6000604051905090565b600080fd5b600080fd5b6000819050919050565b6108528161083f565b811461085d57600080fd5b50565b60008135905061086f81610849565b92915050565b60006020828403121561088b5761088a610835565b5b600061089984828501610860565b91505092915050565b600073ffffffffffffffffffffffffffffffffffffffff82169050919050565b60006108cd826108a2565b9050919050565b6108dd816108c2565b82525050565b600081519050919050565b600082825260208201905092915050565b60005b8381101561091d578082015181840152602081019050610902565b60008484015250505050565b6000601f19601f8301169050919050565b6000610945826108e3565b61094f81856108ee565b935061095f8185602086016108ff565b61096881610929565b840191505092915050565b6000819050919050565b61098681610973565b82525050565b6109958161083f565b82525050565b600060c0830160008301516109b360008601826108d4565b50602083015184820360208601526109cb828261093a565b915050604083015184820360408601526109e5828261093a565b91505060608301516109fa606086018261097d565b506080830151610a0d608086018261097d565b5060a0830151610a2060a086018261098c565b508091505092915050565b60006020820190508181036000830152610a45818461099b565b905092915050565b610a56816108c2565b82525050565b600082825260208201905092915050565b6000610a78826108e3565b610a828185610a5c565b9350610a928185602086016108ff565b610a9b81610929565b840191505092915050565b610aaf81610973565b82525050565b610abe8161083f565b82525050565b600060c082019050610ad96000830189610a4d565b8181036020830152610aeb8188610a6d565b90508181036040830152610aff8187610a6d565b9050610b0e6060830186610aa6565b610b1b6080830185610aa6565b610b2860a0830184610ab5565b979650505050505050565b600080fd5b600080fd5b7f4e487b7100000000000000000000000000000000000000000000000000000000600052604160045260246000fd5b610b7582610929565b810181811067ffffffffffffffff82111715610b9457610b93610b3d565b5b80604052505050565b6000610ba761082b565b9050610bb38282610b6c565b919050565b600067ffffffffffffffff821115610bd357610bd2610b3d565b5b610bdc82610929565b9050602081019050919050565b82818337600083830152505050565b6000610c0b610c0684610bb8565b610b9d565b905082815260208101848484011115610c2757610c26610b38565b5b610c32848285610be9565b509392505050565b600082601f830112610c4f57610c4e610b33565b5b8135610c5f848260208601610bf8565b91505092915050565b610c7181610973565b8114610c7c57600080fd5b50565b600081359050610c8e81610c68565b92915050565b60008060008060808587031215610cae57610cad610835565b5b600085013567ffffffffffffffff811115610ccc57610ccb61083a565b5b610cd887828801610c3a565b945050602085013567ffffffffffffffff811115610cf957610cf861083a565b5b610d0587828801610c3a565b9350506040610d1687828801610c7f565b9250506060610d2787828801610c7f565b91505092959194509250565b600081519050919050565b600082825260208201905092915050565b6000819050602082019050919050565b600060c083016000830151610d7760008601826108d4565b5060208301518482036020860152610d8f828261093a565b91505060408301518482036040860152610da9828261093a565b9150506060830151610dbe606086018261097d565b506080830151610dd1608086018261097d565b5060a0830151610de460a086018261098c565b508091505092915050565b6000610dfb8383610d5f565b905092915050565b6000602082019050919050565b6000610e1b82610d33565b610e258185610d3e565b935083602082028501610e3785610d4f565b8060005b85811015610e735784840389528151610e548582610def565b9450610e5f83610e03565b925060208a01995050600181019050610e3b565b50829750879550505050505092915050565b60006020820190508181036000830152610e9f8184610e10565b905092915050565b6000602082019050610ebc6000830184610ab5565b92915050565b7f4e487b7100000000000000000000000000000000000000000000000000000000600052603260045260246000fd5b7f4e487b7100000000000000000000000000000000000000000000000000000000600052602260045260246000fd5b60006002820490506001821680610f3857607f821691505b602082108103610f4b57610f4a610ef1565b5b50919050565b60008190508160005260206000209050919050565b60006020601f8301049050919050565b600082821b905092915050565b600060088302610fb37fffffffffffffffffffffffffffffffffffffffffffffffffffffffffffffffff82610f76565b610fbd8683610f76565b95508019841693508086168417925050509392505050565b6000819050919050565b6000610ffa610ff5610ff08461083f565b610fd5565b61083f565b9050919050565b6000819050919050565b61101483610fdf565b61102861102082611001565b848454610f83565b825550505050565b600090565b61103d611030565b61104881848461100b565b505050565b5b8181101561106c57611061600082611035565b60018101905061104e565b5050565b601f8211156110b15761108281610f51565b61108b84610f66565b8101602085101561109a578190505b6110ae6110a685610f66565b83018261104d565b50505b505050565b600082821c905092915050565b60006110d4600019846008026110b6565b1980831691505092915050565b60006110ed83836110c3565b9150826002028217905092915050565b611106826108e3565b67ffffffffffffffff81111561111f5761111e610b3d565b5b6111298254610f20565b611134828285611070565b600060209050601f8311600181146111675760008415611155578287015190505b61115f85826110e1565b8655506111c7565b601f19841661117586610f51565b60005b8281101561119d57848901518255600182019150602085019450602081019050611178565b868310156111ba57848901516111b6601f8916826110c3565b8355505b6001600288020188555050505b505050505050565b7f4e487b7100000000000000000000000000000000000000000000000000000000600052601160045260246000fd5b60006112098261083f565b91507fffffffffffffffffffffffffffffffffffffffffffffffffffffffffffffffff820361123b5761123a6111cf565b5b600182019050919050565b600060808201905081810360008301526112608187610a6d565b905081810360208301526112748186610a6d565b90506112836040830185610aa6565b6112906060830184610ab5565b9594505050505056fea2646970667358221220bee3645bc901be9a411283e6682cf2c310afd74bf5208d2c3b8e6cb5b1ec392164736f6c63430008180033",
  "linkReferences": {},
  "deployedLinkReferences": {},
  "immutableReferences": {},
  "inputSourceName": "project/contracts/AgentLedger.sol",
  "buildInfoId": "solc-0_8_24-b1df228759211d67509baaae8b72c61c6363969f"
}